{
  "contractName": "TokenFarm",
  "abi": [
    {
      "constant": true,
      "inputs": [],
      "name": "dappToken",
      "outputs": [
        {
          "internalType": "contract DappToken",
          "name": "",
          "type": "address"
        }
      ],
      "payable": false,
      "stateMutability": "view",
      "type": "function"
    },
    {
      "constant": true,
      "inputs": [
        {
          "internalType": "address",
          "name": "",
          "type": "address"
        }
      ],
      "name": "hasStacked",
      "outputs": [
        {
          "internalType": "bool",
          "name": "",
          "type": "bool"
        }
      ],
      "payable": false,
      "stateMutability": "view",
      "type": "function"
    },
    {
      "constant": true,
      "inputs": [
        {
          "internalType": "address",
          "name": "",
          "type": "address"
        }
      ],
      "name": "isStacking",
      "outputs": [
        {
          "internalType": "bool",
          "name": "",
          "type": "bool"
        }
      ],
      "payable": false,
      "stateMutability": "view",
      "type": "function"
    },
    {
      "constant": true,
      "inputs": [],
      "name": "name",
      "outputs": [
        {
          "internalType": "string",
          "name": "",
          "type": "string"
        }
      ],
      "payable": false,
      "stateMutability": "view",
      "type": "function"
    },
    {
      "constant": true,
      "inputs": [],
      "name": "owner",
      "outputs": [
        {
          "internalType": "address",
          "name": "",
          "type": "address"
        }
      ],
      "payable": false,
      "stateMutability": "view",
      "type": "function"
    },
    {
      "constant": true,
      "inputs": [
        {
          "internalType": "uint256",
          "name": "",
          "type": "uint256"
        }
      ],
      "name": "stackers",
      "outputs": [
        {
          "internalType": "address",
          "name": "",
          "type": "address"
        }
      ],
      "payable": false,
      "stateMutability": "view",
      "type": "function"
    },
    {
      "constant": true,
      "inputs": [
        {
          "internalType": "address",
          "name": "",
          "type": "address"
        }
      ],
      "name": "stackingBalance",
      "outputs": [
        {
          "internalType": "uint256",
          "name": "",
          "type": "uint256"
        }
      ],
      "payable": false,
      "stateMutability": "view",
      "type": "function"
    },
    {
      "constant": false,
      "inputs": [
        {
          "internalType": "uint256",
          "name": "_amount",
          "type": "uint256"
        }
      ],
      "name": "stakeTokens",
      "outputs": [],
      "payable": false,
      "stateMutability": "nonpayable",
      "type": "function"
    },
    {
      "constant": false,
      "inputs": [],
      "name": "unstakeTokens",
      "outputs": [],
      "payable": false,
      "stateMutability": "nonpayable",
      "type": "function"
    },
    {
      "constant": false,
      "inputs": [],
      "name": "issueTokens",
      "outputs": [],
      "payable": false,
      "stateMutability": "nonpayable",
      "type": "function"
    }
  ],
  "bytecode": "0x60806040526040518060400160405280600f81526020017f4461707020546f6b656e204661726d00000000000000000000000000000000008152506000908051906020019061004f929190610062565b5034801561005c57600080fd5b50610107565b828054600181600116156101000203166002900490600052602060002090601f016020900481019282601f106100a357805160ff19168380011785556100d1565b828001600101855582156100d1579182015b828111156100d05782518255916020019190600101906100b5565b5b5090506100de91906100e2565b5090565b61010491905b808211156101005760008160009055506001016100e8565b5090565b90565b610a55806101166000396000f3fe608060405234801561001057600080fd5b506004361061009e5760003560e01c80637547c7a3116100665780637547c7a31461023257806378197289146102605780638da5cb5b146102b8578063a5ce413b14610302578063fb453e231461030c5761009e565b806306fdde03146100a357806307e9417a1461012657806332ac90cf146101825780635eb186f8146101de57806360ab585214610228575b600080fd5b6100ab61037a565b6040518080602001828103825283818151815260200191508051906020019080838360005b838110156100eb5780820151818401526020810190506100d0565b50505050905090810190601f1680156101185780820380516001836020036101000a031916815260200191505b509250505060405180910390f35b6101686004803603602081101561013c57600080fd5b81019080803573ffffffffffffffffffffffffffffffffffffffff169060200190929190505050610418565b604051808215151515815260200191505060405180910390f35b6101c46004803603602081101561019857600080fd5b81019080803573ffffffffffffffffffffffffffffffffffffffff169060200190929190505050610438565b604051808215151515815260200191505060405180910390f35b6101e6610458565b604051808273ffffffffffffffffffffffffffffffffffffffff1673ffffffffffffffffffffffffffffffffffffffff16815260200191505060405180910390f35b61023061047e565b005b61025e6004803603602081101561024857600080fd5b81019080803590602001909291905050506105e6565b005b6102a26004803603602081101561027657600080fd5b81019080803573ffffffffffffffffffffffffffffffffffffffff16906020019092919050505061084c565b6040518082815260200191505060405180910390f35b6102c0610864565b604051808273ffffffffffffffffffffffffffffffffffffffff1673ffffffffffffffffffffffffffffffffffffffff16815260200191505060405180910390f35b61030a61088a565b005b6103386004803603602081101561032257600080fd5b81019080803590602001909291905050506109e4565b604051808273ffffffffffffffffffffffffffffffffffffffff1673ffffffffffffffffffffffffffffffffffffffff16815260200191505060405180910390f35b60008054600181600116156101000203166002900480601f0160208091040260200160405190810160405280929190818152602001828054600181600116156101000203166002900480156104105780601f106103e557610100808354040283529160200191610410565b820191906000526020600020905b8154815290600101906020018083116103f357829003601f168201915b505050505081565b60066020528060005260406000206000915054906101000a900460ff1681565b60056020528060005260406000206000915054906101000a900460ff1681565b600160009054906101000a900473ffffffffffffffffffffffffffffffffffffffff1681565b600260009054906101000a900473ffffffffffffffffffffffffffffffffffffffff1673ffffffffffffffffffffffffffffffffffffffff163373ffffffffffffffffffffffffffffffffffffffff1614610541576040517f08c379a00000000000000000000000000000000000000000000000000000000081526004018080602001828103825260188152602001807f63616c6c6572206d75737420626520746865206f776e6572000000000000000081525060200191505060405180910390fd5b60008090505b6003805490508110156105e35760006003828154811061056357fe5b9060005260206000200160009054906101000a900473ffffffffffffffffffffffffffffffffffffffff1690506000600460008373ffffffffffffffffffffffffffffffffffffffff1673ffffffffffffffffffffffffffffffffffffffff16815260200190815260200160002054905050508080600101915050610547565b50565b6000811161065c576040517f08c379a00000000000000000000000000000000000000000000000000000000081526004018080602001828103825260128152602001807f616d6f756e742063616e6e6f742062652030000000000000000000000000000081525060200191505060405180910390fd5b80600460003373ffffffffffffffffffffffffffffffffffffffff1673ffffffffffffffffffffffffffffffffffffffff1681526020019081526020016000205401600460003373ffffffffffffffffffffffffffffffffffffffff1673ffffffffffffffffffffffffffffffffffffffff16815260200190815260200160002081905550600560003373ffffffffffffffffffffffffffffffffffffffff1673ffffffffffffffffffffffffffffffffffffffff16815260200190815260200160002060009054906101000a900460ff166107995760033390806001815401808255809150509060018203906000526020600020016000909192909190916101000a81548173ffffffffffffffffffffffffffffffffffffffff021916908373ffffffffffffffffffffffffffffffffffffffff160217905550505b6001600660003373ffffffffffffffffffffffffffffffffffffffff1673ffffffffffffffffffffffffffffffffffffffff16815260200190815260200160002060006101000a81548160ff0219169083151502179055506001600560003373ffffffffffffffffffffffffffffffffffffffff1673ffffffffffffffffffffffffffffffffffffffff16815260200190815260200160002060006101000a81548160ff02191690831515021790555050565b60046020528060005260406000206000915090505481565b600260009054906101000a900473ffffffffffffffffffffffffffffffffffffffff1681565b6000600460003373ffffffffffffffffffffffffffffffffffffffff1673ffffffffffffffffffffffffffffffffffffffff16815260200190815260200160002054905060008111610944576040517f08c379a000000000000000000000000000000000000000000000000000000000815260040180806020018281038252601b8152602001807f7374616b696e672062616c616e63652063616e6e6f742062652030000000000081525060200191505060405180910390fd5b6000600460003373ffffffffffffffffffffffffffffffffffffffff1673ffffffffffffffffffffffffffffffffffffffff168152602001908152602001600020819055506000600660003373ffffffffffffffffffffffffffffffffffffffff1673ffffffffffffffffffffffffffffffffffffffff16815260200190815260200160002060006101000a81548160ff02191690831515021790555050565b600381815481106109f157fe5b906000526020600020016000915054906101000a900473ffffffffffffffffffffffffffffffffffffffff168156fea265627a7a72315820be6af443232fb2450a32f4c7630ecf0485e4f56142b1bac5e78f21c4bef26ad764736f6c63430005100032",
  "source": "pragma solidity >0.5.0;\n\n// import \"./DappToken.sol\";\n// import \"./DaiToken.sol\";\n\n// contract TokenFarm {\n//     string public name = \"Dapp Token Farm\";\n    // address public owner;\n//     DappToken public dappToken;\n//     DaiToken public daiToken;\n\n//     address[] public stakers;\n//     mapping(address => uint) public stakingBalance;\n//     mapping(address => bool) public hasStaked;\n//     mapping(address => bool) public isStaking;\n\n//     constructor(DappToken _dappToken, DaiToken _daiToken) public {\n//         dappToken = _dappToken;\n//         daiToken = _daiToken;\n//         owner = msg.sender;\n//     }\n\n//     function stakeTokens(uint _amount) public {\n//         // Require amount greater than 0\n//         require(_amount > 0, \"amount cannot be 0\");\n\n//         // Trasnfer Mock Dai tokens to this contract for staking\n//         daiToken.transferFrom(msg.sender, address(this), _amount);\n\n//         // Update staking balance\n//         stakingBalance[msg.sender] = stakingBalance[msg.sender] + _amount;\n\n//         // Add user to stakers array *only* if they haven't staked already\n//         if(!hasStaked[msg.sender]) {\n//             stakers.push(msg.sender);\n//         }\n\n//         // Update staking status\n//         isStaking[msg.sender] = true;\n//         hasStaked[msg.sender] = true;\n//     }\n\n    // // Unstaking Tokens (Withdraw)\n    // function unstakeTokens() public {\n    //     // Fetch staking balance\n    //     uint balance = stakingBalance[msg.sender];\n\n    //     // Require amount greater than 0\n    //     require(balance > 0, \"staking balance cannot be 0\");\n\n    //     // Transfer Mock Dai tokens to this contract for staking\n    //     daiToken.transfer(msg.sender, balance);\n\n    //     // Reset staking balance\n    //     stakingBalance[msg.sender] = 0;\n\n    //     // Update staking status\n    //     isStaking[msg.sender] = false;\n    // }\n\n    // // Issuing Tokens\n    // function issueTokens() public {\n    //     // Only owner can call this function\n    //     require(msg.sender == owner, \"caller must be the owner\");\n\n    //     // Issue tokens to all stakers\n    //     for (uint i=0; i<stakers.length; i++) {\n    //         address recipient = stakers[i];\n    //         uint balance = stakingBalance[recipient];\n    //         if(balance > 0) {\n    //             dappToken.transfer(recipient, balance);\n    //         }\n    //     }\n    // }\n// }\n\n\nimport \"./DappToken.sol\";\n// import \"./DaiToken.sol\";\n\ncontract TokenFarm{\n    string public name = \"Dapp Token Farm\";\n    DappToken public dappToken;\n    // DaiToken public daiToken;\n    address public owner;\n    // constructor(DappToken _dappToken, DaiToken _daiToken) public{\n    //     dappToken = _dappToken;\n    //     daiToken = _daiToken;\n    //     owner = msg.sender;\n    // }\n\n    address[] public stackers;\n    mapping(address => uint) public stackingBalance;\n    mapping(address => bool) public hasStacked;\n    mapping(address => bool) public isStacking;\n\n    // Stake tokens\n    function stakeTokens(uint _amount) public{\n\n        // require amount should be greater than 0\n        require(_amount >0, \"amount cannot be 0\");\n\n        // transfer mock dai token to this contract for staking\n        // daiToken.transferFrom(msg.sender,address(this),_amount);\n\n        // update stacking balance\n        stackingBalance[msg.sender] = stackingBalance[msg.sender] + _amount;\n\n        // add user to stackers array only if they haven't \n        // stacked already\n        if(!hasStacked[msg.sender]){\n            stackers.push(msg.sender);\n        }\n\n        // update stacking status\n        isStacking[msg.sender]= true;\n        hasStacked[msg.sender]= true;\n        \n    }\n\n     // Unstaking Tokens (Withdraw)\n    function unstakeTokens() public {\n        // Fetch staking balance\n        uint balance = stackingBalance[msg.sender];\n\n        // Require amount greater than 0\n        require(balance > 0, \"staking balance cannot be 0\");\n\n        // Transfer Mock Dai tokens to this contract for staking\n        // daiToken.transfer(msg.sender, balance);\n\n        // Reset staking balance\n        stackingBalance[msg.sender] = 0;\n\n        // Update staking status\n        isStacking[msg.sender] = false;\n    } \n\n    // Issuing Tokens\n    function issueTokens() public {\n        // Only owner can call this function\n        require(msg.sender == owner, \"caller must be the owner\");\n\n        // Issue tokens to all stakers\n        for (uint i=0; i<stackers.length; i++) {\n            address recipient = stackers[i];\n            uint balance = stackingBalance[recipient];\n            if(balance > 0) {\n                // dappToken.transfer(recipient, balance);\n            }\n        }\n    }\n \n}",
  "sourcePath": "D:/Preetam Sarkar 4th and final year project/Fund-Raising-Defi-App/src/contracts/TokenFarm.sol",
  "compiler": {
    "name": "solc",
    "version": "0.5.16+commit.9c3226ce.Emscripten.clang"
  },
  "schemaVersion": "3.2.3",
  "updatedAt": "2021-11-30T15:53:47.366Z",
  "devdoc": {
    "methods": {}
  },
  "userdoc": {
    "methods": {}
  }
}