{
  "contractName": "FundSwap",
  "abi": [
    {
      "inputs": [
        {
          "internalType": "contract CbToken",
          "name": "_cbToken",
          "type": "address"
        }
      ],
      "payable": false,
      "stateMutability": "nonpayable",
      "type": "constructor"
    },
    {
      "anonymous": false,
      "inputs": [
        {
          "indexed": false,
          "internalType": "address",
          "name": "creator",
          "type": "address"
        },
        {
          "indexed": false,
          "internalType": "uint256",
          "name": "id",
          "type": "uint256"
        },
        {
          "indexed": false,
          "internalType": "uint256",
          "name": "amount",
          "type": "uint256"
        }
      ],
      "name": "Donation",
      "type": "event"
    },
    {
      "anonymous": false,
      "inputs": [
        {
          "indexed": false,
          "internalType": "address",
          "name": "creator",
          "type": "address"
        },
        {
          "indexed": false,
          "internalType": "uint256",
          "name": "goal",
          "type": "uint256"
        },
        {
          "indexed": false,
          "internalType": "uint256",
          "name": "currentAmount",
          "type": "uint256"
        },
        {
          "indexed": false,
          "internalType": "bool",
          "name": "goalCompleted",
          "type": "bool"
        },
        {
          "indexed": false,
          "internalType": "bool",
          "name": "investorRewarded",
          "type": "bool"
        }
      ],
      "name": "ProjectCreate",
      "type": "event"
    },
    {
      "anonymous": false,
      "inputs": [
        {
          "indexed": false,
          "internalType": "address",
          "name": "receiverAccount",
          "type": "address"
        },
        {
          "indexed": false,
          "internalType": "address",
          "name": "cbToken",
          "type": "address"
        },
        {
          "indexed": false,
          "internalType": "address",
          "name": "fundSwap",
          "type": "address"
        },
        {
          "indexed": false,
          "internalType": "uint256",
          "name": "amount",
          "type": "uint256"
        },
        {
          "indexed": false,
          "internalType": "uint256",
          "name": "rate",
          "type": "uint256"
        }
      ],
      "name": "TokenPurchased",
      "type": "event"
    },
    {
      "anonymous": false,
      "inputs": [
        {
          "indexed": false,
          "internalType": "address",
          "name": "receiverAccount",
          "type": "address"
        },
        {
          "indexed": false,
          "internalType": "address",
          "name": "cbToken",
          "type": "address"
        },
        {
          "indexed": false,
          "internalType": "address",
          "name": "senderAccount",
          "type": "address"
        },
        {
          "indexed": false,
          "internalType": "uint256",
          "name": "amount",
          "type": "uint256"
        },
        {
          "indexed": false,
          "internalType": "uint256",
          "name": "rate",
          "type": "uint256"
        },
        {
          "indexed": false,
          "internalType": "uint256",
          "name": "etherAmount",
          "type": "uint256"
        }
      ],
      "name": "TokenSold",
      "type": "event"
    },
    {
      "constant": true,
      "inputs": [
        {
          "internalType": "address",
          "name": "",
          "type": "address"
        },
        {
          "internalType": "uint256",
          "name": "",
          "type": "uint256"
        }
      ],
      "name": "addressInvestor",
      "outputs": [
        {
          "internalType": "address",
          "name": "",
          "type": "address"
        }
      ],
      "payable": false,
      "stateMutability": "view",
      "type": "function"
    },
    {
      "constant": true,
      "inputs": [
        {
          "internalType": "address",
          "name": "",
          "type": "address"
        },
        {
          "internalType": "address",
          "name": "",
          "type": "address"
        }
      ],
      "name": "addressReward",
      "outputs": [
        {
          "internalType": "uint256",
          "name": "",
          "type": "uint256"
        }
      ],
      "payable": false,
      "stateMutability": "view",
      "type": "function"
    },
    {
      "constant": true,
      "inputs": [
        {
          "internalType": "address",
          "name": "",
          "type": "address"
        },
        {
          "internalType": "address",
          "name": "",
          "type": "address"
        }
      ],
      "name": "amountDonated",
      "outputs": [
        {
          "internalType": "uint256",
          "name": "",
          "type": "uint256"
        }
      ],
      "payable": false,
      "stateMutability": "view",
      "type": "function"
    },
    {
      "constant": true,
      "inputs": [],
      "name": "cbToken",
      "outputs": [
        {
          "internalType": "contract CbToken",
          "name": "",
          "type": "address"
        }
      ],
      "payable": false,
      "stateMutability": "view",
      "type": "function"
    },
    {
      "constant": true,
      "inputs": [],
      "name": "name",
      "outputs": [
        {
          "internalType": "string",
          "name": "",
          "type": "string"
        }
      ],
      "payable": false,
      "stateMutability": "view",
      "type": "function"
    },
    {
      "constant": true,
      "inputs": [
        {
          "internalType": "uint256",
          "name": "",
          "type": "uint256"
        }
      ],
      "name": "projects",
      "outputs": [
        {
          "internalType": "string",
          "name": "projectName",
          "type": "string"
        },
        {
          "internalType": "address",
          "name": "creator",
          "type": "address"
        },
        {
          "internalType": "string",
          "name": "description",
          "type": "string"
        },
        {
          "internalType": "string",
          "name": "projectLink",
          "type": "string"
        },
        {
          "internalType": "uint256",
          "name": "goal",
          "type": "uint256"
        },
        {
          "internalType": "uint256",
          "name": "currentAmount",
          "type": "uint256"
        },
        {
          "internalType": "bool",
          "name": "goalCompleted",
          "type": "bool"
        },
        {
          "internalType": "bool",
          "name": "investorRewarded",
          "type": "bool"
        }
      ],
      "payable": false,
      "stateMutability": "view",
      "type": "function"
    },
    {
      "constant": true,
      "inputs": [],
      "name": "rate",
      "outputs": [
        {
          "internalType": "uint256",
          "name": "",
          "type": "uint256"
        }
      ],
      "payable": false,
      "stateMutability": "view",
      "type": "function"
    },
    {
      "constant": true,
      "inputs": [
        {
          "internalType": "address",
          "name": "",
          "type": "address"
        },
        {
          "internalType": "address",
          "name": "",
          "type": "address"
        }
      ],
      "name": "rewardReceived",
      "outputs": [
        {
          "internalType": "bool",
          "name": "",
          "type": "bool"
        }
      ],
      "payable": false,
      "stateMutability": "view",
      "type": "function"
    },
    {
      "constant": true,
      "inputs": [],
      "name": "totalProject",
      "outputs": [
        {
          "internalType": "uint256",
          "name": "",
          "type": "uint256"
        }
      ],
      "payable": false,
      "stateMutability": "view",
      "type": "function"
    },
    {
      "constant": false,
      "inputs": [],
      "name": "buycbTokens",
      "outputs": [],
      "payable": true,
      "stateMutability": "payable",
      "type": "function"
    },
    {
      "constant": false,
      "inputs": [
        {
          "internalType": "uint256",
          "name": "_amount",
          "type": "uint256"
        }
      ],
      "name": "sellcbTokens",
      "outputs": [],
      "payable": false,
      "stateMutability": "nonpayable",
      "type": "function"
    },
    {
      "constant": false,
      "inputs": [
        {
          "internalType": "string",
          "name": "_name",
          "type": "string"
        },
        {
          "internalType": "string",
          "name": "_description",
          "type": "string"
        },
        {
          "internalType": "string",
          "name": "_link",
          "type": "string"
        },
        {
          "internalType": "uint256",
          "name": "_goal",
          "type": "uint256"
        }
      ],
      "name": "createProject",
      "outputs": [],
      "payable": false,
      "stateMutability": "nonpayable",
      "type": "function"
    },
    {
      "constant": false,
      "inputs": [
        {
          "components": [
            {
              "internalType": "string",
              "name": "projectName",
              "type": "string"
            },
            {
              "internalType": "address",
              "name": "creator",
              "type": "address"
            },
            {
              "internalType": "string",
              "name": "description",
              "type": "string"
            },
            {
              "internalType": "string",
              "name": "projectLink",
              "type": "string"
            },
            {
              "internalType": "uint256",
              "name": "goal",
              "type": "uint256"
            },
            {
              "internalType": "uint256",
              "name": "currentAmount",
              "type": "uint256"
            },
            {
              "internalType": "bool",
              "name": "goalCompleted",
              "type": "bool"
            },
            {
              "internalType": "bool",
              "name": "investorRewarded",
              "type": "bool"
            }
          ],
          "internalType": "struct FundSwap.Project",
          "name": "_proj",
          "type": "tuple"
        },
        {
          "internalType": "address",
          "name": "_creator",
          "type": "address"
        }
      ],
      "name": "reward",
      "outputs": [
        {
          "components": [
            {
              "internalType": "string",
              "name": "projectName",
              "type": "string"
            },
            {
              "internalType": "address",
              "name": "creator",
              "type": "address"
            },
            {
              "internalType": "string",
              "name": "description",
              "type": "string"
            },
            {
              "internalType": "string",
              "name": "projectLink",
              "type": "string"
            },
            {
              "internalType": "uint256",
              "name": "goal",
              "type": "uint256"
            },
            {
              "internalType": "uint256",
              "name": "currentAmount",
              "type": "uint256"
            },
            {
              "internalType": "bool",
              "name": "goalCompleted",
              "type": "bool"
            },
            {
              "internalType": "bool",
              "name": "investorRewarded",
              "type": "bool"
            }
          ],
          "internalType": "struct FundSwap.Project",
          "name": "_project",
          "type": "tuple"
        }
      ],
      "payable": false,
      "stateMutability": "nonpayable",
      "type": "function"
    },
    {
      "constant": false,
      "inputs": [
        {
          "internalType": "uint256",
          "name": "_id",
          "type": "uint256"
        },
        {
          "internalType": "address",
          "name": "_to",
          "type": "address"
        },
        {
          "internalType": "uint256",
          "name": "_amount",
          "type": "uint256"
        }
      ],
      "name": "donate",
      "outputs": [],
      "payable": false,
      "stateMutability": "nonpayable",
      "type": "function"
    }
  ],
  "bytecode": "0x60806040526040518060400160405280600981526020017f46756e64205377617000000000000000000000000000000000000000000000008152506000908051906020019062000051929190620000d7565b50601460015560006003553480156200006957600080fd5b5060405162002bd038038062002bd083398181016040526200008f91908101906200019d565b80600260006101000a81548173ffffffffffffffffffffffffffffffffffffffff021916908373ffffffffffffffffffffffffffffffffffffffff160217905550506200022b565b828054600181600116156101000203166002900490600052602060002090601f016020900481019282601f106200011a57805160ff19168380011785556200014b565b828001600101855582156200014b579182015b828111156200014a5782518255916020019190600101906200012d565b5b5090506200015a91906200015e565b5090565b6200018391905b808211156200017f57600081600090555060010162000165565b5090565b90565b600081519050620001978162000211565b92915050565b600060208284031215620001b057600080fd5b6000620001c08482850162000186565b91505092915050565b6000620001d682620001f1565b9050919050565b6000620001ea82620001c9565b9050919050565b600073ffffffffffffffffffffffffffffffffffffffff82169050919050565b6200021c81620001dd565b81146200022857600080fd5b50565b612995806200023b6000396000f3fe6080604052600436106100dd5760003560e01c80633c84419e1161007f5780638c54631a116100595780638c54631a146102cc578063a1e6653714610309578063a34ee1b414610334578063fe46ebfc1461035f576100dd565b80633c84419e146102485780636ab551de1461028557806376c87b76146102c2576100dd565b80631ca73896116100bb5780631ca738961461018e57806325325d31146101b757806325fb2680146101f45780632c4e722e1461021d576100dd565b8063036213d9146100e257806306fdde031461011f578063107046bd1461014a575b600080fd5b3480156100ee57600080fd5b5061010960048036036101049190810190612183565b610388565b6040516101169190612717565b60405180910390f35b34801561012b57600080fd5b50610134610b0c565b6040516101419190612662565b60405180910390f35b34801561015657600080fd5b50610171600480360361016c91908101906121d7565b610baa565b604051610185989796959493929190612684565b60405180910390f35b34801561019a57600080fd5b506101b560048036036101b091908101906120d8565b610df4565b005b3480156101c357600080fd5b506101de60048036036101d99190810190612073565b610fae565b6040516101eb919061242f565b60405180910390f35b34801561020057600080fd5b5061021b60048036036102169190810190612229565b610ff9565b005b34801561022957600080fd5b50610232611846565b60405161023f9190612739565b60405180910390f35b34801561025457600080fd5b5061026f600480360361026a9190810190612037565b61184c565b60405161027c9190612739565b60405180910390f35b34801561029157600080fd5b506102ac60048036036102a79190810190612037565b611871565b6040516102b99190612739565b60405180910390f35b6102ca611896565b005b3480156102d857600080fd5b506102f360048036036102ee9190810190612037565b611a6c565b604051610300919061262c565b60405180910390f35b34801561031557600080fd5b5061031e611a9b565b60405161032b9190612739565b60405180910390f35b34801561034057600080fd5b50610349611aa1565b6040516103569190612647565b60405180910390f35b34801561036b57600080fd5b50610386600480360361038191908101906121d7565b611ac7565b005b610390611d14565b6000606460048560a0015102816103a357fe5b049050600260009054906101000a900473ffffffffffffffffffffffffffffffffffffffff1673ffffffffffffffffffffffffffffffffffffffff166370a08231336040518263ffffffff1660e01b8152600401610401919061244a565b60206040518083038186803b15801561041957600080fd5b505afa15801561042d573d6000803e3d6000fd5b505050506040513d601f19601f820116820180604052506104519190810190612200565b8111610afe5760008090505b600560008573ffffffffffffffffffffffffffffffffffffffff1673ffffffffffffffffffffffffffffffffffffffff16815260200190815260200160002080549050811015610adc57600860008573ffffffffffffffffffffffffffffffffffffffff1673ffffffffffffffffffffffffffffffffffffffff1681526020019081526020016000206000600560008773ffffffffffffffffffffffffffffffffffffffff1673ffffffffffffffffffffffffffffffffffffffff168152602001908152602001600020838154811061053257fe5b9060005260206000200160009054906101000a900473ffffffffffffffffffffffffffffffffffffffff1673ffffffffffffffffffffffffffffffffffffffff1673ffffffffffffffffffffffffffffffffffffffff16815260200190815260200160002060009054906101000a900460ff16610acf57600260009054906101000a900473ffffffffffffffffffffffffffffffffffffffff1673ffffffffffffffffffffffffffffffffffffffff1663a9059cbb600560008773ffffffffffffffffffffffffffffffffffffffff1673ffffffffffffffffffffffffffffffffffffffff168152602001908152602001600020838154811061063157fe5b9060005260206000200160009054906101000a900473ffffffffffffffffffffffffffffffffffffffff1660646004600760008a73ffffffffffffffffffffffffffffffffffffffff1673ffffffffffffffffffffffffffffffffffffffff1681526020019081526020016000206000600560008c73ffffffffffffffffffffffffffffffffffffffff1673ffffffffffffffffffffffffffffffffffffffff16815260200190815260200160002088815481106106eb57fe5b9060005260206000200160009054906101000a900473ffffffffffffffffffffffffffffffffffffffff1673ffffffffffffffffffffffffffffffffffffffff1673ffffffffffffffffffffffffffffffffffffffff16815260200190815260200160002054028161075957fe5b046040518363ffffffff1660e01b81526004016107779291906125cc565b602060405180830381600087803b15801561079157600080fd5b505af11580156107a5573d6000803e3d6000fd5b505050506040513d601f19601f820116820180604052506107c991908101906120af565b5060646004600760008773ffffffffffffffffffffffffffffffffffffffff1673ffffffffffffffffffffffffffffffffffffffff1681526020019081526020016000206000600560008973ffffffffffffffffffffffffffffffffffffffff1673ffffffffffffffffffffffffffffffffffffffff168152602001908152602001600020858154811061085957fe5b9060005260206000200160009054906101000a900473ffffffffffffffffffffffffffffffffffffffff1673ffffffffffffffffffffffffffffffffffffffff1673ffffffffffffffffffffffffffffffffffffffff1681526020019081526020016000205402816108c757fe5b04600660008673ffffffffffffffffffffffffffffffffffffffff1673ffffffffffffffffffffffffffffffffffffffff1681526020019081526020016000206000600560008873ffffffffffffffffffffffffffffffffffffffff1673ffffffffffffffffffffffffffffffffffffffff168152602001908152602001600020848154811061095357fe5b9060005260206000200160009054906101000a900473ffffffffffffffffffffffffffffffffffffffff1673ffffffffffffffffffffffffffffffffffffffff1673ffffffffffffffffffffffffffffffffffffffff168152602001908152602001600020600082825401925050819055506001600860008673ffffffffffffffffffffffffffffffffffffffff1673ffffffffffffffffffffffffffffffffffffffff1681526020019081526020016000206000600560008873ffffffffffffffffffffffffffffffffffffffff1673ffffffffffffffffffffffffffffffffffffffff1681526020019081526020016000208481548110610a5257fe5b9060005260206000200160009054906101000a900473ffffffffffffffffffffffffffffffffffffffff1673ffffffffffffffffffffffffffffffffffffffff1673ffffffffffffffffffffffffffffffffffffffff16815260200190815260200160002060006101000a81548160ff0219169083151502179055505b808060010191505061045d565b508360e00151158460e001901515908115158152505083915081915050610b06565b839150819150505b92915050565b60008054600181600116156101000203166002900480601f016020809104026020016040519081016040528092919081815260200182805460018160011615610100020316600290048015610ba25780601f10610b7757610100808354040283529160200191610ba2565b820191906000526020600020905b815481529060010190602001808311610b8557829003601f168201915b505050505081565b6004602052806000526040600020600091509050806000018054600181600116156101000203166002900480601f016020809104026020016040519081016040528092919081815260200182805460018160011615610100020316600290048015610c565780601f10610c2b57610100808354040283529160200191610c56565b820191906000526020600020905b815481529060010190602001808311610c3957829003601f168201915b5050505050908060010160009054906101000a900473ffffffffffffffffffffffffffffffffffffffff1690806002018054600181600116156101000203166002900480601f016020809104026020016040519081016040528092919081815260200182805460018160011615610100020316600290048015610d1a5780601f10610cef57610100808354040283529160200191610d1a565b820191906000526020600020905b815481529060010190602001808311610cfd57829003601f168201915b505050505090806003018054600181600116156101000203166002900480601f016020809104026020016040519081016040528092919081815260200182805460018160011615610100020316600290048015610db85780601f10610d8d57610100808354040283529160200191610db8565b820191906000526020600020905b815481529060010190602001808311610d9b57829003601f168201915b5050505050908060040154908060050154908060060160009054906101000a900460ff16908060060160019054906101000a900460ff16905088565b6003600081548092919060010191905055506040518061010001604052808581526020013373ffffffffffffffffffffffffffffffffffffffff16815260200184815260200183815260200182815260200160008152602001600015158152602001600015158152506004600060035481526020019081526020016000206000820151816000019080519060200190610e8e929190611d73565b5060208201518160010160006101000a81548173ffffffffffffffffffffffffffffffffffffffff021916908373ffffffffffffffffffffffffffffffffffffffff1602179055506040820151816002019080519060200190610ef2929190611d73565b506060820151816003019080519060200190610f0f929190611d73565b506080820151816004015560a0820151816005015560c08201518160060160006101000a81548160ff02191690831515021790555060e08201518160060160016101000a81548160ff0219169083151502179055509050507f0cf7cfdf2be576d06ee95a782befb1379a4e265461d7f77842f8974a26fce6b933826000806000604051610fa0959493929190612518565b60405180910390a150505050565b60056020528160005260406000208181548110610fc757fe5b906000526020600020016000915091509054906101000a900473ffffffffffffffffffffffffffffffffffffffff1681565b600260009054906101000a900473ffffffffffffffffffffffffffffffffffffffff1673ffffffffffffffffffffffffffffffffffffffff166370a08231336040518263ffffffff1660e01b8152600401611054919061244a565b60206040518083038186803b15801561106c57600080fd5b505afa158015611080573d6000803e3d6000fd5b505050506040513d601f19601f820116820180604052506110a49190810190612200565b8111156110b057600080fd5b6110b8611d14565b6004600085815260200190815260200160002060405180610100016040529081600082018054600181600116156101000203166002900480601f0160208091040260200160405190810160405280929190818152602001828054600181600116156101000203166002900480156111705780601f1061114557610100808354040283529160200191611170565b820191906000526020600020905b81548152906001019060200180831161115357829003601f168201915b505050505081526020016001820160009054906101000a900473ffffffffffffffffffffffffffffffffffffffff1673ffffffffffffffffffffffffffffffffffffffff1673ffffffffffffffffffffffffffffffffffffffff168152602001600282018054600181600116156101000203166002900480601f0160208091040260200160405190810160405280929190818152602001828054600181600116156101000203166002900480156112685780601f1061123d57610100808354040283529160200191611268565b820191906000526020600020905b81548152906001019060200180831161124b57829003601f168201915b50505050508152602001600382018054600181600116156101000203166002900480601f01602080910402602001604051908101604052809291908181526020018280546001816001161561010002031660029004801561130a5780601f106112df5761010080835404028352916020019161130a565b820191906000526020600020905b8154815290600101906020018083116112ed57829003601f168201915b5050505050815260200160048201548152602001600582015481526020016006820160009054906101000a900460ff161515151581526020016006820160019054906101000a900460ff16151515158152505090508273ffffffffffffffffffffffffffffffffffffffff16816020015173ffffffffffffffffffffffffffffffffffffffff1614156116fc57600260009054906101000a900473ffffffffffffffffffffffffffffffffffffffff1673ffffffffffffffffffffffffffffffffffffffff166323b872dd3385856040518463ffffffff1660e01b81526004016113f6939291906124b8565b602060405180830381600087803b15801561141057600080fd5b505af1158015611424573d6000803e3d6000fd5b505050506040513d601f19601f8201168201806040525061144891908101906120af565b508160076000836020015173ffffffffffffffffffffffffffffffffffffffff1673ffffffffffffffffffffffffffffffffffffffff16815260200190815260200160002060003373ffffffffffffffffffffffffffffffffffffffff1673ffffffffffffffffffffffffffffffffffffffff1681526020019081526020016000206000828254019250508190555060086000826020015173ffffffffffffffffffffffffffffffffffffffff1673ffffffffffffffffffffffffffffffffffffffff16815260200190815260200160002060003373ffffffffffffffffffffffffffffffffffffffff1673ffffffffffffffffffffffffffffffffffffffff16815260200190815260200160002060009054906101000a900460ff1661160357600060086000836020015173ffffffffffffffffffffffffffffffffffffffff1673ffffffffffffffffffffffffffffffffffffffff16815260200190815260200160002060003373ffffffffffffffffffffffffffffffffffffffff1673ffffffffffffffffffffffffffffffffffffffff16815260200190815260200160002060006101000a81548160ff0219169083151502179055505b60056000826020015173ffffffffffffffffffffffffffffffffffffffff1673ffffffffffffffffffffffffffffffffffffffff1681526020019081526020016000203390806001815401808255809150509060018203906000526020600020016000909192909190916101000a81548173ffffffffffffffffffffffffffffffffffffffff021916908373ffffffffffffffffffffffffffffffffffffffff16021790555050818160a001818151019150818152505080608001518160a00151101580156116d457508060c00151155b156116fb578060c00151158160c00190151590811515815250506116f88184610388565b90505b5b8060046000868152602001908152602001600020600082015181600001908051906020019061172c929190611d73565b5060208201518160010160006101000a81548173ffffffffffffffffffffffffffffffffffffffff021916908373ffffffffffffffffffffffffffffffffffffffff1602179055506040820151816002019080519060200190611790929190611d73565b5060608201518160030190805190602001906117ad929190611d73565b506080820151816004015560a0820151816005015560c08201518160060160006101000a81548160ff02191690831515021790555060e08201518160060160016101000a81548160ff0219169083151502179055509050507f106aac375bbcf013d1e52338bbf9e740009a1a3a6869f8daa1b72aa1620f5fec838584604051611838939291906125f5565b60405180910390a150505050565b60015481565b6007602052816000526040600020602052806000526040600020600091509150505481565b6006602052816000526040600020602052806000526040600020600091509150505481565b60006001543402905080600260009054906101000a900473ffffffffffffffffffffffffffffffffffffffff1673ffffffffffffffffffffffffffffffffffffffff166370a08231306040518263ffffffff1660e01b81526004016118fb919061242f565b60206040518083038186803b15801561191357600080fd5b505afa158015611927573d6000803e3d6000fd5b505050506040513d601f19601f8201168201806040525061194b9190810190612200565b101561195657600080fd5b600260009054906101000a900473ffffffffffffffffffffffffffffffffffffffff1673ffffffffffffffffffffffffffffffffffffffff1663a9059cbb33836040518363ffffffff1660e01b81526004016119b39291906124ef565b602060405180830381600087803b1580156119cd57600080fd5b505af11580156119e1573d6000803e3d6000fd5b505050506040513d601f19601f82011682018060405250611a0591908101906120af565b507f5d370c76eacf69ac39baf6888766350092d881a70a870ca052922424381f183633600260009054906101000a900473ffffffffffffffffffffffffffffffffffffffff163084600154604051611a61959493929190612465565b60405180910390a150565b60086020528160005260406000206020528060005260406000206000915091509054906101000a900460ff1681565b60035481565b600260009054906101000a900473ffffffffffffffffffffffffffffffffffffffff1681565b600260009054906101000a900473ffffffffffffffffffffffffffffffffffffffff1673ffffffffffffffffffffffffffffffffffffffff166370a08231336040518263ffffffff1660e01b8152600401611b22919061244a565b60206040518083038186803b158015611b3a57600080fd5b505afa158015611b4e573d6000803e3d6000fd5b505050506040513d601f19601f82011682018060405250611b729190810190612200565b811115611b7e57600080fd5b60006001548281611b8b57fe5b049050803073ffffffffffffffffffffffffffffffffffffffff16311015611bb257600080fd5b600260009054906101000a900473ffffffffffffffffffffffffffffffffffffffff1673ffffffffffffffffffffffffffffffffffffffff166323b872dd3330856040518463ffffffff1660e01b8152600401611c11939291906124b8565b602060405180830381600087803b158015611c2b57600080fd5b505af1158015611c3f573d6000803e3d6000fd5b505050506040513d601f19601f82011682018060405250611c6391908101906120af565b503373ffffffffffffffffffffffffffffffffffffffff166108fc829081150290604051600060405180830381858888f19350505050158015611caa573d6000803e3d6000fd5b507f8257f0470c8769f4b3919b39cdf2ccbff753aaecbaeed07ad5ce4844fe722f1b30600260009054906101000a900473ffffffffffffffffffffffffffffffffffffffff16338560015486604051611d089695949392919061256b565b60405180910390a15050565b60405180610100016040528060608152602001600073ffffffffffffffffffffffffffffffffffffffff168152602001606081526020016060815260200160008152602001600081526020016000151581526020016000151581525090565b828054600181600116156101000203166002900490600052602060002090601f016020900481019282601f10611db457805160ff1916838001178555611de2565b82800160010185558215611de2579182015b82811115611de1578251825591602001919060010190611dc6565b5b509050611def9190611df3565b5090565b611e1591905b80821115611e11576000816000905550600101611df9565b5090565b90565b600081359050611e278161290d565b92915050565b600081359050611e3c81612924565b92915050565b600081519050611e5181612924565b92915050565b600082601f830112611e6857600080fd5b8135611e7b611e7682612781565b612754565b91508082526020830160208301858383011115611e9757600080fd5b611ea28382846128ba565b50505092915050565b600082601f830112611ebc57600080fd5b8135611ecf611eca826127ad565b612754565b91508082526020830160208301858383011115611eeb57600080fd5b611ef68382846128ba565b50505092915050565b60006101008284031215611f1257600080fd5b611f1d610100612754565b9050600082013567ffffffffffffffff811115611f3957600080fd5b611f4584828501611e57565b6000830152506020611f5984828501611e18565b602083015250604082013567ffffffffffffffff811115611f7957600080fd5b611f8584828501611e57565b604083015250606082013567ffffffffffffffff811115611fa557600080fd5b611fb184828501611e57565b6060830152506080611fc58482850161200d565b60808301525060a0611fd98482850161200d565b60a08301525060c0611fed84828501611e2d565b60c08301525060e061200184828501611e2d565b60e08301525092915050565b60008135905061201c8161293b565b92915050565b6000815190506120318161293b565b92915050565b6000806040838503121561204a57600080fd5b600061205885828601611e18565b925050602061206985828601611e18565b9150509250929050565b6000806040838503121561208657600080fd5b600061209485828601611e18565b92505060206120a58582860161200d565b9150509250929050565b6000602082840312156120c157600080fd5b60006120cf84828501611e42565b91505092915050565b600080600080608085870312156120ee57600080fd5b600085013567ffffffffffffffff81111561210857600080fd5b61211487828801611eab565b945050602085013567ffffffffffffffff81111561213157600080fd5b61213d87828801611eab565b935050604085013567ffffffffffffffff81111561215a57600080fd5b61216687828801611eab565b92505060606121778782880161200d565b91505092959194509250565b6000806040838503121561219657600080fd5b600083013567ffffffffffffffff8111156121b057600080fd5b6121bc85828601611eff565b92505060206121cd85828601611e18565b9150509250929050565b6000602082840312156121e957600080fd5b60006121f78482850161200d565b91505092915050565b60006020828403121561221257600080fd5b600061222084828501612022565b91505092915050565b60008060006060848603121561223e57600080fd5b600061224c8682870161200d565b935050602061225d86828701611e18565b925050604061226e8682870161200d565b9150509250925092565b6122818161284e565b82525050565b61229081612806565b82525050565b61229f81612806565b82525050565b6122ae81612818565b82525050565b6122bd81612818565b82525050565b6122cc81612860565b82525050565b6122db81612884565b82525050565b60006122ec826127d9565b6122f681856127e4565b93506123068185602086016128c9565b61230f816128fc565b840191505092915050565b6000612325826127d9565b61232f81856127f5565b935061233f8185602086016128c9565b612348816128fc565b840191505092915050565b600061010083016000830151848203600086015261237182826122e1565b91505060208301516123866020860182612287565b506040830151848203604086015261239e82826122e1565b915050606083015184820360608601526123b882826122e1565b91505060808301516123cd6080860182612411565b5060a08301516123e060a0860182612411565b5060c08301516123f360c08601826122a5565b5060e083015161240660e08601826122a5565b508091505092915050565b61241a81612844565b82525050565b61242981612844565b82525050565b60006020820190506124446000830184612296565b92915050565b600060208201905061245f6000830184612278565b92915050565b600060a08201905061247a6000830188612278565b6124876020830187612296565b6124946040830186612296565b6124a16060830185612420565b6124ae6080830184612420565b9695505050505050565b60006060820190506124cd6000830186612278565b6124da6020830185612296565b6124e76040830184612420565b949350505050565b60006040820190506125046000830185612278565b6125116020830184612420565b9392505050565b600060a08201905061252d6000830188612278565b61253a6020830187612420565b61254760408301866122d2565b61255460608301856122b4565b61256160808301846122b4565b9695505050505050565b600060c0820190506125806000830189612296565b61258d6020830188612296565b61259a6040830187612278565b6125a76060830186612420565b6125b46080830185612420565b6125c160a0830184612420565b979650505050505050565b60006040820190506125e16000830185612296565b6125ee6020830184612420565b9392505050565b600060608201905061260a6000830186612296565b6126176020830185612420565b6126246040830184612420565b949350505050565b600060208201905061264160008301846122b4565b92915050565b600060208201905061265c60008301846122c3565b92915050565b6000602082019050818103600083015261267c818461231a565b905092915050565b600061010082019050818103600083015261269f818b61231a565b90506126ae602083018a612296565b81810360408301526126c0818961231a565b905081810360608301526126d4818861231a565b90506126e36080830187612420565b6126f060a0830186612420565b6126fd60c08301856122b4565b61270a60e08301846122b4565b9998505050505050505050565b600060208201905081810360008301526127318184612353565b905092915050565b600060208201905061274e6000830184612420565b92915050565b6000604051905081810181811067ffffffffffffffff8211171561277757600080fd5b8060405250919050565b600067ffffffffffffffff82111561279857600080fd5b601f19601f8301169050602081019050919050565b600067ffffffffffffffff8211156127c457600080fd5b601f19601f8301169050602081019050919050565b600081519050919050565b600082825260208201905092915050565b600082825260208201905092915050565b600061281182612824565b9050919050565b60008115159050919050565b600073ffffffffffffffffffffffffffffffffffffffff82169050919050565b6000819050919050565b600061285982612896565b9050919050565b600061286b82612872565b9050919050565b600061287d82612824565b9050919050565b600061288f82612844565b9050919050565b60006128a1826128a8565b9050919050565b60006128b382612824565b9050919050565b82818337600083830152505050565b60005b838110156128e75780820151818401526020810190506128cc565b838111156128f6576000848401525b50505050565b6000601f19601f8301169050919050565b61291681612806565b811461292157600080fd5b50565b61292d81612818565b811461293857600080fd5b50565b61294481612844565b811461294f57600080fd5b5056fea365627a7a72315820ffa963cf667be3226dac40b4b9c8041f11b406e50876f73bbe5416b418180b4a6c6578706572696d656e74616cf564736f6c63430005100040",
  "source": "pragma solidity >0.5.0;\r\npragma experimental ABIEncoderV2;\r\n\r\nimport \"./CbToken.sol\";\r\n\r\ncontract FundSwap{\r\n    string public name = \"Fund Swap\";\r\n    uint public rate = 20;\r\n    CbToken public cbToken;\r\n    uint public totalProject = 0;\r\n\r\n\r\n    struct Project{\r\n        string projectName;\r\n        address creator;\r\n        string description;\r\n        string projectLink;\r\n        uint goal;\r\n        uint currentAmount;\r\n        bool goalCompleted;\r\n        bool investorRewarded;   \r\n    }\r\n\r\n    // mapping for storing all the projects created for donation\r\n    mapping( uint =>Project) public projects;\r\n\r\n    // mapping for storing addresses of who donated to whom \r\n    mapping(address =>address[]) public addressInvestor;\r\n\r\n    // to get the number of amount in cb token for the \r\n    // reward received on a project goal completion\r\n    mapping(address => mapping(address => uint)) public addressReward;\r\n\r\n    // to get the number of amount in cb token for the \r\n    // rewared donated on a project\r\n    mapping(address => mapping(address => uint)) public amountDonated;\r\n\r\n    // to keep track of the addresses received reward or not\r\n    mapping(address => mapping(address => bool)) public rewardReceived;\r\n\r\n\r\n    constructor (CbToken _cbToken) public{\r\n        cbToken = _cbToken;\r\n    }\r\n\r\n    \r\n    // event for token purchasing\r\n    event TokenPurchased(\r\n        address receiverAccount,\r\n        address cbToken,\r\n        address fundSwap,\r\n        uint256 amount,\r\n        uint rate\r\n    );\r\n\r\n    // event for token selling\r\n    event TokenSold(\r\n        address receiverAccount,\r\n        address cbToken,\r\n        address senderAccount,\r\n        uint256 amount,\r\n        uint rate,\r\n        uint etherAmount\r\n    );\r\n\r\n    // event for project creation\r\n    event ProjectCreate(\r\n        address creator,\r\n        uint goal,\r\n        uint currentAmount,\r\n        bool goalCompleted,\r\n        bool investorRewarded\r\n    );\r\n\r\n    // event for donation\r\n    event Donation(\r\n        address creator,\r\n        uint id,\r\n        uint amount\r\n    );\r\n\r\n    // function for buying the CB Tokens\r\n    function buycbTokens() public payable{\r\n        // 1 ether = 20 CB Tokens\r\n        // calculating the number of CB tokens tokens to buy\r\n        uint256 tokens = msg.value * rate;\r\n\r\n        // checking there is enough of CB tokens to buy\r\n        require( cbToken.balanceOf(address(this)) >= tokens);\r\n\r\n        // transfering the tokens to the address\r\n        cbToken.transfer(msg.sender, tokens);\r\n\r\n        // emit and event to check and test the transfer\r\n        emit TokenPurchased(msg.sender,address(cbToken),address(this),tokens,rate);\r\n\r\n    }\r\n\r\n    // function to sell CB Tokens\r\n    function sellcbTokens(uint _amount) public {\r\n        // 1 ether = 20 CB Token\r\n        // checking if there is enough balance to sell\r\n        require(_amount <= cbToken.balanceOf(msg.sender));\r\n        \r\n        // calculating ether amount from token\r\n        uint etherAmount = _amount / rate;\r\n\r\n        // checking that Fund Swap has enough balance\r\n        require(address(this).balance >= etherAmount);\r\n\r\n        // transfer of CB token to the Fund Swap contract from the investor\r\n        cbToken.transferFrom(msg.sender,address(this),_amount);\r\n        // transfer the amount in Wei form of ether\r\n        msg.sender.transfer(etherAmount);\r\n\r\n        emit TokenSold(address(this),address(cbToken),msg.sender,_amount,rate,etherAmount);\r\n\r\n    }\r\n\r\n    // function for creating project\r\n    function createProject(string memory _name,string memory _description,string memory _link,uint _goal) public{\r\n        totalProject++;\r\n        projects[totalProject] = Project(_name,msg.sender,_description,_link,_goal,0,false,false);\r\n        emit ProjectCreate(msg.sender,_goal,0,false,false);\r\n    }\r\n\r\n    // function for rewarding the investor\r\n    function reward(Project memory _proj,address _creator) public returns(Project memory _project){\r\n        // suppose current amount 40\r\n        // so balance will be 1.6\r\n        uint balance = _proj.currentAmount * 4/100;\r\n        if(balance <= cbToken.balanceOf(msg.sender)){\r\n            // require(balance <=cbToken.balanceOf(msg.sender),\"Not enough token to reward from CbSwap\");\r\n            for(uint i=0; i< addressInvestor[_creator].length ; i++){\r\n                if(!rewardReceived[_creator][addressInvestor[_creator][i]]){\r\n                    cbToken.transfer(addressInvestor[_creator][i],amountDonated[_creator][addressInvestor[_creator][i]]*4/100);\r\n                    addressReward[_creator][addressInvestor[_creator][i]] += amountDonated[_creator][addressInvestor[_creator][i]]*4/100;\r\n                    rewardReceived[_creator][addressInvestor[_creator][i]] = true;\r\n                }\r\n            }\r\n            // investor rewarded\r\n            _proj.investorRewarded = !_proj.investorRewarded;\r\n            _project = _proj;\r\n            return _project;\r\n        }else{\r\n            // noice[1][2] = 15;\r\n            _project = _proj;\r\n            return _project;        \r\n        }\r\n        \r\n    }\r\n\r\n    // function to contribute CB tokens to the opensource projects\r\n    function donate(uint _id, address _to,uint _amount) public{\r\n        // \r\n        require(_amount<= cbToken.balanceOf(msg.sender));\r\n        Project memory _proj = projects[_id];\r\n        if(_proj.creator == _to){\r\n            cbToken.transferFrom(msg.sender, _to, _amount);\r\n            amountDonated[_proj.creator][msg.sender] +=  _amount;\r\n            if(!rewardReceived[_proj.creator][msg.sender])\r\n                rewardReceived[_proj.creator][msg.sender] = false;\r\n            addressInvestor[_proj.creator].push(msg.sender);\r\n            _proj.currentAmount += _amount;\r\n            if(_proj.currentAmount >= _proj.goal && !_proj.goalCompleted){\r\n                // goal completed true\r\n                _proj.goalCompleted = !_proj.goalCompleted;\r\n                // call the reward function with _proj and address of creator as parameter\r\n                _proj = reward(_proj,_to);\r\n                // investor rewarded\r\n                // _proj.investorRewarded = !_proj.investorRewarded;\r\n            }\r\n        }\r\n        // set the updated project state\r\n        projects[_id] = _proj;\r\n        emit Donation(_to, _id, _amount);\r\n    }\r\n\r\n\r\n\r\n}\r\n",
  "sourcePath": "C:/Users/LENOVO/Documents/hackathon/-Crypto-Dapp/src/contracts/FundSwap.sol",
  "compiler": {
    "name": "solc",
    "version": "0.5.16+commit.9c3226ce.Emscripten.clang"
  },
  "schemaVersion": "3.2.3",
  "updatedAt": "2021-12-10T08:20:48.579Z",
  "networkType": "ethereum",
  "devdoc": {
    "methods": {}
  },
  "userdoc": {
    "methods": {}
  }
}