{
  "contractName": "FundSwap",
  "abi": [
    {
      "inputs": [
        {
          "internalType": "contract CbToken",
          "name": "_cbToken",
          "type": "address"
        }
      ],
      "payable": false,
      "stateMutability": "nonpayable",
      "type": "constructor"
    },
    {
      "anonymous": false,
      "inputs": [
        {
          "indexed": false,
          "internalType": "address",
          "name": "creator",
          "type": "address"
        },
        {
          "indexed": false,
          "internalType": "uint256",
          "name": "id",
          "type": "uint256"
        },
        {
          "indexed": false,
          "internalType": "uint256",
          "name": "amount",
          "type": "uint256"
        }
      ],
      "name": "Donation",
      "type": "event"
    },
    {
      "anonymous": false,
      "inputs": [
        {
          "indexed": false,
          "internalType": "address",
          "name": "creator",
          "type": "address"
        },
        {
          "indexed": false,
          "internalType": "uint256",
          "name": "goal",
          "type": "uint256"
        },
        {
          "indexed": false,
          "internalType": "uint256",
          "name": "currentAmount",
          "type": "uint256"
        },
        {
          "indexed": false,
          "internalType": "bool",
          "name": "goalCompleted",
          "type": "bool"
        },
        {
          "indexed": false,
          "internalType": "bool",
          "name": "investorRewarded",
          "type": "bool"
        }
      ],
      "name": "ProjectCreate",
      "type": "event"
    },
    {
      "anonymous": false,
      "inputs": [
        {
          "indexed": false,
          "internalType": "address",
          "name": "receiverAccount",
          "type": "address"
        },
        {
          "indexed": false,
          "internalType": "address",
          "name": "cbToken",
          "type": "address"
        },
        {
          "indexed": false,
          "internalType": "address",
          "name": "fundSwap",
          "type": "address"
        },
        {
          "indexed": false,
          "internalType": "uint256",
          "name": "amount",
          "type": "uint256"
        },
        {
          "indexed": false,
          "internalType": "uint256",
          "name": "rate",
          "type": "uint256"
        }
      ],
      "name": "TokenPurchased",
      "type": "event"
    },
    {
      "anonymous": false,
      "inputs": [
        {
          "indexed": false,
          "internalType": "address",
          "name": "receiverAccount",
          "type": "address"
        },
        {
          "indexed": false,
          "internalType": "address",
          "name": "cbToken",
          "type": "address"
        },
        {
          "indexed": false,
          "internalType": "address",
          "name": "senderAccount",
          "type": "address"
        },
        {
          "indexed": false,
          "internalType": "uint256",
          "name": "amount",
          "type": "uint256"
        },
        {
          "indexed": false,
          "internalType": "uint256",
          "name": "rate",
          "type": "uint256"
        },
        {
          "indexed": false,
          "internalType": "uint256",
          "name": "etherAmount",
          "type": "uint256"
        }
      ],
      "name": "TokenSold",
      "type": "event"
    },
    {
      "constant": true,
      "inputs": [
        {
          "internalType": "address",
          "name": "",
          "type": "address"
        },
        {
          "internalType": "uint256",
          "name": "",
          "type": "uint256"
        }
      ],
      "name": "addressInvestor",
      "outputs": [
        {
          "internalType": "address",
          "name": "",
          "type": "address"
        }
      ],
      "payable": false,
      "stateMutability": "view",
      "type": "function"
    },
    {
      "constant": true,
      "inputs": [
        {
          "internalType": "address",
          "name": "",
          "type": "address"
        },
        {
          "internalType": "address",
          "name": "",
          "type": "address"
        }
      ],
      "name": "addressReward",
      "outputs": [
        {
          "internalType": "uint256",
          "name": "",
          "type": "uint256"
        }
      ],
      "payable": false,
      "stateMutability": "view",
      "type": "function"
    },
    {
      "constant": true,
      "inputs": [
        {
          "internalType": "address",
          "name": "",
          "type": "address"
        },
        {
          "internalType": "address",
          "name": "",
          "type": "address"
        }
      ],
      "name": "amountDonated",
      "outputs": [
        {
          "internalType": "uint256",
          "name": "",
          "type": "uint256"
        }
      ],
      "payable": false,
      "stateMutability": "view",
      "type": "function"
    },
    {
      "constant": true,
      "inputs": [],
      "name": "cbToken",
      "outputs": [
        {
          "internalType": "contract CbToken",
          "name": "",
          "type": "address"
        }
      ],
      "payable": false,
      "stateMutability": "view",
      "type": "function"
    },
    {
      "constant": true,
      "inputs": [],
      "name": "name",
      "outputs": [
        {
          "internalType": "string",
          "name": "",
          "type": "string"
        }
      ],
      "payable": false,
      "stateMutability": "view",
      "type": "function"
    },
    {
      "constant": true,
      "inputs": [
        {
          "internalType": "uint256",
          "name": "",
          "type": "uint256"
        }
      ],
      "name": "projects",
      "outputs": [
        {
          "internalType": "string",
          "name": "projectName",
          "type": "string"
        },
        {
          "internalType": "address",
          "name": "creator",
          "type": "address"
        },
        {
          "internalType": "string",
          "name": "description",
          "type": "string"
        },
        {
          "internalType": "string",
          "name": "projectLink",
          "type": "string"
        },
        {
          "internalType": "uint256",
          "name": "goal",
          "type": "uint256"
        },
        {
          "internalType": "uint256",
          "name": "currentAmount",
          "type": "uint256"
        },
        {
          "internalType": "bool",
          "name": "goalCompleted",
          "type": "bool"
        },
        {
          "internalType": "bool",
          "name": "investorRewarded",
          "type": "bool"
        }
      ],
      "payable": false,
      "stateMutability": "view",
      "type": "function"
    },
    {
      "constant": true,
      "inputs": [],
      "name": "rate",
      "outputs": [
        {
          "internalType": "uint256",
          "name": "",
          "type": "uint256"
        }
      ],
      "payable": false,
      "stateMutability": "view",
      "type": "function"
    },
    {
      "constant": true,
      "inputs": [
        {
          "internalType": "address",
          "name": "",
          "type": "address"
        },
        {
          "internalType": "address",
          "name": "",
          "type": "address"
        }
      ],
      "name": "rewardReceived",
      "outputs": [
        {
          "internalType": "bool",
          "name": "",
          "type": "bool"
        }
      ],
      "payable": false,
      "stateMutability": "view",
      "type": "function"
    },
    {
      "constant": true,
      "inputs": [],
      "name": "totalProject",
      "outputs": [
        {
          "internalType": "uint256",
          "name": "",
          "type": "uint256"
        }
      ],
      "payable": false,
      "stateMutability": "view",
      "type": "function"
    },
    {
      "constant": true,
      "inputs": [
        {
          "internalType": "address",
          "name": "",
          "type": "address"
        }
      ],
      "name": "totalReward",
      "outputs": [
        {
          "internalType": "uint256",
          "name": "",
          "type": "uint256"
        }
      ],
      "payable": false,
      "stateMutability": "view",
      "type": "function"
    },
    {
      "constant": false,
      "inputs": [],
      "name": "buycbTokens",
      "outputs": [],
      "payable": true,
      "stateMutability": "payable",
      "type": "function"
    },
    {
      "constant": false,
      "inputs": [
        {
          "internalType": "uint256",
          "name": "_amount",
          "type": "uint256"
        }
      ],
      "name": "sellcbTokens",
      "outputs": [],
      "payable": false,
      "stateMutability": "nonpayable",
      "type": "function"
    },
    {
      "constant": false,
      "inputs": [
        {
          "internalType": "string",
          "name": "_name",
          "type": "string"
        },
        {
          "internalType": "string",
          "name": "_description",
          "type": "string"
        },
        {
          "internalType": "string",
          "name": "_link",
          "type": "string"
        },
        {
          "internalType": "uint256",
          "name": "_goal",
          "type": "uint256"
        }
      ],
      "name": "createProject",
      "outputs": [],
      "payable": false,
      "stateMutability": "nonpayable",
      "type": "function"
    },
    {
      "constant": false,
      "inputs": [
        {
          "components": [
            {
              "internalType": "string",
              "name": "projectName",
              "type": "string"
            },
            {
              "internalType": "address",
              "name": "creator",
              "type": "address"
            },
            {
              "internalType": "string",
              "name": "description",
              "type": "string"
            },
            {
              "internalType": "string",
              "name": "projectLink",
              "type": "string"
            },
            {
              "internalType": "uint256",
              "name": "goal",
              "type": "uint256"
            },
            {
              "internalType": "uint256",
              "name": "currentAmount",
              "type": "uint256"
            },
            {
              "internalType": "bool",
              "name": "goalCompleted",
              "type": "bool"
            },
            {
              "internalType": "bool",
              "name": "investorRewarded",
              "type": "bool"
            }
          ],
          "internalType": "struct FundSwap.Project",
          "name": "_proj",
          "type": "tuple"
        },
        {
          "internalType": "address",
          "name": "_creator",
          "type": "address"
        }
      ],
      "name": "reward",
      "outputs": [
        {
          "components": [
            {
              "internalType": "string",
              "name": "projectName",
              "type": "string"
            },
            {
              "internalType": "address",
              "name": "creator",
              "type": "address"
            },
            {
              "internalType": "string",
              "name": "description",
              "type": "string"
            },
            {
              "internalType": "string",
              "name": "projectLink",
              "type": "string"
            },
            {
              "internalType": "uint256",
              "name": "goal",
              "type": "uint256"
            },
            {
              "internalType": "uint256",
              "name": "currentAmount",
              "type": "uint256"
            },
            {
              "internalType": "bool",
              "name": "goalCompleted",
              "type": "bool"
            },
            {
              "internalType": "bool",
              "name": "investorRewarded",
              "type": "bool"
            }
          ],
          "internalType": "struct FundSwap.Project",
          "name": "_project",
          "type": "tuple"
        }
      ],
      "payable": false,
      "stateMutability": "nonpayable",
      "type": "function"
    },
    {
      "constant": false,
      "inputs": [
        {
          "internalType": "uint256",
          "name": "_id",
          "type": "uint256"
        },
        {
          "internalType": "address",
          "name": "_to",
          "type": "address"
        },
        {
          "internalType": "uint256",
          "name": "_amount",
          "type": "uint256"
        }
      ],
      "name": "donate",
      "outputs": [],
      "payable": false,
      "stateMutability": "nonpayable",
      "type": "function"
    }
  ],
  "bytecode": "0x60806040526040518060400160405280600981526020017f46756e64205377617000000000000000000000000000000000000000000000008152506000908051906020019062000051929190620000d7565b50601460015560006003553480156200006957600080fd5b5060405162002e1738038062002e1783398181016040526200008f91908101906200019d565b80600260006101000a81548173ffffffffffffffffffffffffffffffffffffffff021916908373ffffffffffffffffffffffffffffffffffffffff160217905550506200022b565b828054600181600116156101000203166002900490600052602060002090601f016020900481019282601f106200011a57805160ff19168380011785556200014b565b828001600101855582156200014b579182015b828111156200014a5782518255916020019190600101906200012d565b5b5090506200015a91906200015e565b5090565b6200018391905b808211156200017f57600081600090555060010162000165565b5090565b90565b600081519050620001978162000211565b92915050565b600060208284031215620001b057600080fd5b6000620001c08482850162000186565b91505092915050565b6000620001d682620001f1565b9050919050565b6000620001ea82620001c9565b9050919050565b600073ffffffffffffffffffffffffffffffffffffffff82169050919050565b6200021c81620001dd565b81146200022857600080fd5b50565b612bdc806200023b6000396000f3fe6080604052600436106100e85760003560e01c80633c84419e1161008a57806399908f741161005957806399908f7414610314578063a1e6653714610351578063a34ee1b41461037c578063fe46ebfc146103a7576100e8565b80633c84419e146102535780636ab551de1461029057806376c87b76146102cd5780638c54631a146102d7576100e8565b80631ca73896116100c65780631ca738961461019957806325325d31146101c257806325fb2680146101ff5780632c4e722e14610228576100e8565b8063036213d9146100ed57806306fdde031461012a578063107046bd14610155575b600080fd5b3480156100f957600080fd5b50610114600480360361010f91908101906123ca565b6103d0565b604051610121919061295e565b60405180910390f35b34801561013657600080fd5b5061013f610d12565b60405161014c91906128a9565b60405180910390f35b34801561016157600080fd5b5061017c6004803603610177919081019061241e565b610db0565b6040516101909897969594939291906128cb565b60405180910390f35b3480156101a557600080fd5b506101c060048036036101bb919081019061231f565b610ffa565b005b3480156101ce57600080fd5b506101e960048036036101e491908101906122ba565b6111b4565b6040516101f69190612676565b60405180910390f35b34801561020b57600080fd5b5061022660048036036102219190810190612470565b6111ff565b005b34801561023457600080fd5b5061023d611a4c565b60405161024a9190612980565b60405180910390f35b34801561025f57600080fd5b5061027a6004803603610275919081019061227e565b611a52565b6040516102879190612980565b60405180910390f35b34801561029c57600080fd5b506102b760048036036102b2919081019061227e565b611a77565b6040516102c49190612980565b60405180910390f35b6102d5611a9c565b005b3480156102e357600080fd5b506102fe60048036036102f9919081019061227e565b611c72565b60405161030b9190612873565b60405180910390f35b34801561032057600080fd5b5061033b60048036036103369190810190612255565b611ca1565b6040516103489190612980565b60405180910390f35b34801561035d57600080fd5b50610366611cb9565b6040516103739190612980565b60405180910390f35b34801561038857600080fd5b50610391611cbf565b60405161039e919061288e565b60405180910390f35b3480156103b357600080fd5b506103ce60048036036103c9919081019061241e565b611ce5565b005b6103d8611f32565b6000606460048560a0015102816103eb57fe5b049050600260009054906101000a900473ffffffffffffffffffffffffffffffffffffffff1673ffffffffffffffffffffffffffffffffffffffff166370a08231336040518263ffffffff1660e01b81526004016104499190612691565b60206040518083038186803b15801561046157600080fd5b505afa158015610475573d6000803e3d6000fd5b505050506040513d601f19601f820116820180604052506104999190810190612447565b8111610d045760008090505b600560008573ffffffffffffffffffffffffffffffffffffffff1673ffffffffffffffffffffffffffffffffffffffff16815260200190815260200160002080549050811015610ce257600960008573ffffffffffffffffffffffffffffffffffffffff1673ffffffffffffffffffffffffffffffffffffffff1681526020019081526020016000206000600560008773ffffffffffffffffffffffffffffffffffffffff1673ffffffffffffffffffffffffffffffffffffffff168152602001908152602001600020838154811061057a57fe5b9060005260206000200160009054906101000a900473ffffffffffffffffffffffffffffffffffffffff1673ffffffffffffffffffffffffffffffffffffffff1673ffffffffffffffffffffffffffffffffffffffff16815260200190815260200160002060009054906101000a900460ff16610cd557600260009054906101000a900473ffffffffffffffffffffffffffffffffffffffff1673ffffffffffffffffffffffffffffffffffffffff1663a9059cbb600560008773ffffffffffffffffffffffffffffffffffffffff1673ffffffffffffffffffffffffffffffffffffffff168152602001908152602001600020838154811061067957fe5b9060005260206000200160009054906101000a900473ffffffffffffffffffffffffffffffffffffffff1660646004600860008a73ffffffffffffffffffffffffffffffffffffffff1673ffffffffffffffffffffffffffffffffffffffff1681526020019081526020016000206000600560008c73ffffffffffffffffffffffffffffffffffffffff1673ffffffffffffffffffffffffffffffffffffffff168152602001908152602001600020888154811061073357fe5b9060005260206000200160009054906101000a900473ffffffffffffffffffffffffffffffffffffffff1673ffffffffffffffffffffffffffffffffffffffff1673ffffffffffffffffffffffffffffffffffffffff1681526020019081526020016000205402816107a157fe5b046040518363ffffffff1660e01b81526004016107bf929190612813565b602060405180830381600087803b1580156107d957600080fd5b505af11580156107ed573d6000803e3d6000fd5b505050506040513d601f19601f8201168201806040525061081191908101906122f6565b5060646004600860008773ffffffffffffffffffffffffffffffffffffffff1673ffffffffffffffffffffffffffffffffffffffff1681526020019081526020016000206000600560008973ffffffffffffffffffffffffffffffffffffffff1673ffffffffffffffffffffffffffffffffffffffff16815260200190815260200160002085815481106108a157fe5b9060005260206000200160009054906101000a900473ffffffffffffffffffffffffffffffffffffffff1673ffffffffffffffffffffffffffffffffffffffff1673ffffffffffffffffffffffffffffffffffffffff16815260200190815260200160002054028161090f57fe5b04600760008673ffffffffffffffffffffffffffffffffffffffff1673ffffffffffffffffffffffffffffffffffffffff1681526020019081526020016000206000600560008873ffffffffffffffffffffffffffffffffffffffff1673ffffffffffffffffffffffffffffffffffffffff168152602001908152602001600020848154811061099b57fe5b9060005260206000200160009054906101000a900473ffffffffffffffffffffffffffffffffffffffff1673ffffffffffffffffffffffffffffffffffffffff1673ffffffffffffffffffffffffffffffffffffffff168152602001908152602001600020600082825401925050819055506001600960008673ffffffffffffffffffffffffffffffffffffffff1673ffffffffffffffffffffffffffffffffffffffff1681526020019081526020016000206000600560008873ffffffffffffffffffffffffffffffffffffffff1673ffffffffffffffffffffffffffffffffffffffff1681526020019081526020016000208481548110610a9a57fe5b9060005260206000200160009054906101000a900473ffffffffffffffffffffffffffffffffffffffff1673ffffffffffffffffffffffffffffffffffffffff1673ffffffffffffffffffffffffffffffffffffffff16815260200190815260200160002060006101000a81548160ff02191690831515021790555060646004600860008773ffffffffffffffffffffffffffffffffffffffff1673ffffffffffffffffffffffffffffffffffffffff1681526020019081526020016000206000600560008973ffffffffffffffffffffffffffffffffffffffff1673ffffffffffffffffffffffffffffffffffffffff1681526020019081526020016000208581548110610ba557fe5b9060005260206000200160009054906101000a900473ffffffffffffffffffffffffffffffffffffffff1673ffffffffffffffffffffffffffffffffffffffff1673ffffffffffffffffffffffffffffffffffffffff168152602001908152602001600020540281610c1357fe5b0460066000600560008873ffffffffffffffffffffffffffffffffffffffff1673ffffffffffffffffffffffffffffffffffffffff1681526020019081526020016000208481548110610c6257fe5b9060005260206000200160009054906101000a900473ffffffffffffffffffffffffffffffffffffffff1673ffffffffffffffffffffffffffffffffffffffff1673ffffffffffffffffffffffffffffffffffffffff168152602001908152602001600020600082825401925050819055505b80806001019150506104a5565b508360e00151158460e001901515908115158152505083915081915050610d0c565b839150819150505b92915050565b60008054600181600116156101000203166002900480601f016020809104026020016040519081016040528092919081815260200182805460018160011615610100020316600290048015610da85780601f10610d7d57610100808354040283529160200191610da8565b820191906000526020600020905b815481529060010190602001808311610d8b57829003601f168201915b505050505081565b6004602052806000526040600020600091509050806000018054600181600116156101000203166002900480601f016020809104026020016040519081016040528092919081815260200182805460018160011615610100020316600290048015610e5c5780601f10610e3157610100808354040283529160200191610e5c565b820191906000526020600020905b815481529060010190602001808311610e3f57829003601f168201915b5050505050908060010160009054906101000a900473ffffffffffffffffffffffffffffffffffffffff1690806002018054600181600116156101000203166002900480601f016020809104026020016040519081016040528092919081815260200182805460018160011615610100020316600290048015610f205780601f10610ef557610100808354040283529160200191610f20565b820191906000526020600020905b815481529060010190602001808311610f0357829003601f168201915b505050505090806003018054600181600116156101000203166002900480601f016020809104026020016040519081016040528092919081815260200182805460018160011615610100020316600290048015610fbe5780601f10610f9357610100808354040283529160200191610fbe565b820191906000526020600020905b815481529060010190602001808311610fa157829003601f168201915b5050505050908060040154908060050154908060060160009054906101000a900460ff16908060060160019054906101000a900460ff16905088565b6003600081548092919060010191905055506040518061010001604052808581526020013373ffffffffffffffffffffffffffffffffffffffff16815260200184815260200183815260200182815260200160008152602001600015158152602001600015158152506004600060035481526020019081526020016000206000820151816000019080519060200190611094929190611f91565b5060208201518160010160006101000a81548173ffffffffffffffffffffffffffffffffffffffff021916908373ffffffffffffffffffffffffffffffffffffffff16021790555060408201518160020190805190602001906110f8929190611f91565b506060820151816003019080519060200190611115929190611f91565b506080820151816004015560a0820151816005015560c08201518160060160006101000a81548160ff02191690831515021790555060e08201518160060160016101000a81548160ff0219169083151502179055509050507f0cf7cfdf2be576d06ee95a782befb1379a4e265461d7f77842f8974a26fce6b9338260008060006040516111a695949392919061275f565b60405180910390a150505050565b600560205281600052604060002081815481106111cd57fe5b906000526020600020016000915091509054906101000a900473ffffffffffffffffffffffffffffffffffffffff1681565b600260009054906101000a900473ffffffffffffffffffffffffffffffffffffffff1673ffffffffffffffffffffffffffffffffffffffff166370a08231336040518263ffffffff1660e01b815260040161125a9190612691565b60206040518083038186803b15801561127257600080fd5b505afa158015611286573d6000803e3d6000fd5b505050506040513d601f19601f820116820180604052506112aa9190810190612447565b8111156112b657600080fd5b6112be611f32565b6004600085815260200190815260200160002060405180610100016040529081600082018054600181600116156101000203166002900480601f0160208091040260200160405190810160405280929190818152602001828054600181600116156101000203166002900480156113765780601f1061134b57610100808354040283529160200191611376565b820191906000526020600020905b81548152906001019060200180831161135957829003601f168201915b505050505081526020016001820160009054906101000a900473ffffffffffffffffffffffffffffffffffffffff1673ffffffffffffffffffffffffffffffffffffffff1673ffffffffffffffffffffffffffffffffffffffff168152602001600282018054600181600116156101000203166002900480601f01602080910402602001604051908101604052809291908181526020018280546001816001161561010002031660029004801561146e5780601f106114435761010080835404028352916020019161146e565b820191906000526020600020905b81548152906001019060200180831161145157829003601f168201915b50505050508152602001600382018054600181600116156101000203166002900480601f0160208091040260200160405190810160405280929190818152602001828054600181600116156101000203166002900480156115105780601f106114e557610100808354040283529160200191611510565b820191906000526020600020905b8154815290600101906020018083116114f357829003601f168201915b5050505050815260200160048201548152602001600582015481526020016006820160009054906101000a900460ff161515151581526020016006820160019054906101000a900460ff16151515158152505090508273ffffffffffffffffffffffffffffffffffffffff16816020015173ffffffffffffffffffffffffffffffffffffffff16141561190257600260009054906101000a900473ffffffffffffffffffffffffffffffffffffffff1673ffffffffffffffffffffffffffffffffffffffff166323b872dd3385856040518463ffffffff1660e01b81526004016115fc939291906126ff565b602060405180830381600087803b15801561161657600080fd5b505af115801561162a573d6000803e3d6000fd5b505050506040513d601f19601f8201168201806040525061164e91908101906122f6565b508160086000836020015173ffffffffffffffffffffffffffffffffffffffff1673ffffffffffffffffffffffffffffffffffffffff16815260200190815260200160002060003373ffffffffffffffffffffffffffffffffffffffff1673ffffffffffffffffffffffffffffffffffffffff1681526020019081526020016000206000828254019250508190555060096000826020015173ffffffffffffffffffffffffffffffffffffffff1673ffffffffffffffffffffffffffffffffffffffff16815260200190815260200160002060003373ffffffffffffffffffffffffffffffffffffffff1673ffffffffffffffffffffffffffffffffffffffff16815260200190815260200160002060009054906101000a900460ff1661180957600060096000836020015173ffffffffffffffffffffffffffffffffffffffff1673ffffffffffffffffffffffffffffffffffffffff16815260200190815260200160002060003373ffffffffffffffffffffffffffffffffffffffff1673ffffffffffffffffffffffffffffffffffffffff16815260200190815260200160002060006101000a81548160ff0219169083151502179055505b60056000826020015173ffffffffffffffffffffffffffffffffffffffff1673ffffffffffffffffffffffffffffffffffffffff1681526020019081526020016000203390806001815401808255809150509060018203906000526020600020016000909192909190916101000a81548173ffffffffffffffffffffffffffffffffffffffff021916908373ffffffffffffffffffffffffffffffffffffffff16021790555050818160a001818151019150818152505080608001518160a00151101580156118da57508060c00151155b15611901578060c00151158160c00190151590811515815250506118fe81846103d0565b90505b5b80600460008681526020019081526020016000206000820151816000019080519060200190611932929190611f91565b5060208201518160010160006101000a81548173ffffffffffffffffffffffffffffffffffffffff021916908373ffffffffffffffffffffffffffffffffffffffff1602179055506040820151816002019080519060200190611996929190611f91565b5060608201518160030190805190602001906119b3929190611f91565b506080820151816004015560a0820151816005015560c08201518160060160006101000a81548160ff02191690831515021790555060e08201518160060160016101000a81548160ff0219169083151502179055509050507f106aac375bbcf013d1e52338bbf9e740009a1a3a6869f8daa1b72aa1620f5fec838584604051611a3e9392919061283c565b60405180910390a150505050565b60015481565b6008602052816000526040600020602052806000526040600020600091509150505481565b6007602052816000526040600020602052806000526040600020600091509150505481565b60006001543402905080600260009054906101000a900473ffffffffffffffffffffffffffffffffffffffff1673ffffffffffffffffffffffffffffffffffffffff166370a08231306040518263ffffffff1660e01b8152600401611b019190612676565b60206040518083038186803b158015611b1957600080fd5b505afa158015611b2d573d6000803e3d6000fd5b505050506040513d601f19601f82011682018060405250611b519190810190612447565b1015611b5c57600080fd5b600260009054906101000a900473ffffffffffffffffffffffffffffffffffffffff1673ffffffffffffffffffffffffffffffffffffffff1663a9059cbb33836040518363ffffffff1660e01b8152600401611bb9929190612736565b602060405180830381600087803b158015611bd357600080fd5b505af1158015611be7573d6000803e3d6000fd5b505050506040513d601f19601f82011682018060405250611c0b91908101906122f6565b507f5d370c76eacf69ac39baf6888766350092d881a70a870ca052922424381f183633600260009054906101000a900473ffffffffffffffffffffffffffffffffffffffff163084600154604051611c679594939291906126ac565b60405180910390a150565b60096020528160005260406000206020528060005260406000206000915091509054906101000a900460ff1681565b60066020528060005260406000206000915090505481565b60035481565b600260009054906101000a900473ffffffffffffffffffffffffffffffffffffffff1681565b600260009054906101000a900473ffffffffffffffffffffffffffffffffffffffff1673ffffffffffffffffffffffffffffffffffffffff166370a08231336040518263ffffffff1660e01b8152600401611d409190612691565b60206040518083038186803b158015611d5857600080fd5b505afa158015611d6c573d6000803e3d6000fd5b505050506040513d601f19601f82011682018060405250611d909190810190612447565b811115611d9c57600080fd5b60006001548281611da957fe5b049050803073ffffffffffffffffffffffffffffffffffffffff16311015611dd057600080fd5b600260009054906101000a900473ffffffffffffffffffffffffffffffffffffffff1673ffffffffffffffffffffffffffffffffffffffff166323b872dd3330856040518463ffffffff1660e01b8152600401611e2f939291906126ff565b602060405180830381600087803b158015611e4957600080fd5b505af1158015611e5d573d6000803e3d6000fd5b505050506040513d601f19601f82011682018060405250611e8191908101906122f6565b503373ffffffffffffffffffffffffffffffffffffffff166108fc829081150290604051600060405180830381858888f19350505050158015611ec8573d6000803e3d6000fd5b507f8257f0470c8769f4b3919b39cdf2ccbff753aaecbaeed07ad5ce4844fe722f1b30600260009054906101000a900473ffffffffffffffffffffffffffffffffffffffff16338560015486604051611f26969594939291906127b2565b60405180910390a15050565b60405180610100016040528060608152602001600073ffffffffffffffffffffffffffffffffffffffff168152602001606081526020016060815260200160008152602001600081526020016000151581526020016000151581525090565b828054600181600116156101000203166002900490600052602060002090601f016020900481019282601f10611fd257805160ff1916838001178555612000565b82800160010185558215612000579182015b82811115611fff578251825591602001919060010190611fe4565b5b50905061200d9190612011565b5090565b61203391905b8082111561202f576000816000905550600101612017565b5090565b90565b60008135905061204581612b54565b92915050565b60008135905061205a81612b6b565b92915050565b60008151905061206f81612b6b565b92915050565b600082601f83011261208657600080fd5b8135612099612094826129c8565b61299b565b915080825260208301602083018583830111156120b557600080fd5b6120c0838284612b01565b50505092915050565b600082601f8301126120da57600080fd5b81356120ed6120e8826129f4565b61299b565b9150808252602083016020830185838301111561210957600080fd5b612114838284612b01565b50505092915050565b6000610100828403121561213057600080fd5b61213b61010061299b565b9050600082013567ffffffffffffffff81111561215757600080fd5b61216384828501612075565b600083015250602061217784828501612036565b602083015250604082013567ffffffffffffffff81111561219757600080fd5b6121a384828501612075565b604083015250606082013567ffffffffffffffff8111156121c357600080fd5b6121cf84828501612075565b60608301525060806121e38482850161222b565b60808301525060a06121f78482850161222b565b60a08301525060c061220b8482850161204b565b60c08301525060e061221f8482850161204b565b60e08301525092915050565b60008135905061223a81612b82565b92915050565b60008151905061224f81612b82565b92915050565b60006020828403121561226757600080fd5b600061227584828501612036565b91505092915050565b6000806040838503121561229157600080fd5b600061229f85828601612036565b92505060206122b085828601612036565b9150509250929050565b600080604083850312156122cd57600080fd5b60006122db85828601612036565b92505060206122ec8582860161222b565b9150509250929050565b60006020828403121561230857600080fd5b600061231684828501612060565b91505092915050565b6000806000806080858703121561233557600080fd5b600085013567ffffffffffffffff81111561234f57600080fd5b61235b878288016120c9565b945050602085013567ffffffffffffffff81111561237857600080fd5b612384878288016120c9565b935050604085013567ffffffffffffffff8111156123a157600080fd5b6123ad878288016120c9565b92505060606123be8782880161222b565b91505092959194509250565b600080604083850312156123dd57600080fd5b600083013567ffffffffffffffff8111156123f757600080fd5b6124038582860161211d565b925050602061241485828601612036565b9150509250929050565b60006020828403121561243057600080fd5b600061243e8482850161222b565b91505092915050565b60006020828403121561245957600080fd5b600061246784828501612240565b91505092915050565b60008060006060848603121561248557600080fd5b60006124938682870161222b565b93505060206124a486828701612036565b92505060406124b58682870161222b565b9150509250925092565b6124c881612a95565b82525050565b6124d781612a4d565b82525050565b6124e681612a4d565b82525050565b6124f581612a5f565b82525050565b61250481612a5f565b82525050565b61251381612aa7565b82525050565b61252281612acb565b82525050565b600061253382612a20565b61253d8185612a2b565b935061254d818560208601612b10565b61255681612b43565b840191505092915050565b600061256c82612a20565b6125768185612a3c565b9350612586818560208601612b10565b61258f81612b43565b840191505092915050565b60006101008301600083015184820360008601526125b88282612528565b91505060208301516125cd60208601826124ce565b50604083015184820360408601526125e58282612528565b915050606083015184820360608601526125ff8282612528565b91505060808301516126146080860182612658565b5060a083015161262760a0860182612658565b5060c083015161263a60c08601826124ec565b5060e083015161264d60e08601826124ec565b508091505092915050565b61266181612a8b565b82525050565b61267081612a8b565b82525050565b600060208201905061268b60008301846124dd565b92915050565b60006020820190506126a660008301846124bf565b92915050565b600060a0820190506126c160008301886124bf565b6126ce60208301876124dd565b6126db60408301866124dd565b6126e86060830185612667565b6126f56080830184612667565b9695505050505050565b600060608201905061271460008301866124bf565b61272160208301856124dd565b61272e6040830184612667565b949350505050565b600060408201905061274b60008301856124bf565b6127586020830184612667565b9392505050565b600060a08201905061277460008301886124bf565b6127816020830187612667565b61278e6040830186612519565b61279b60608301856124fb565b6127a860808301846124fb565b9695505050505050565b600060c0820190506127c760008301896124dd565b6127d460208301886124dd565b6127e160408301876124bf565b6127ee6060830186612667565b6127fb6080830185612667565b61280860a0830184612667565b979650505050505050565b600060408201905061282860008301856124dd565b6128356020830184612667565b9392505050565b600060608201905061285160008301866124dd565b61285e6020830185612667565b61286b6040830184612667565b949350505050565b600060208201905061288860008301846124fb565b92915050565b60006020820190506128a3600083018461250a565b92915050565b600060208201905081810360008301526128c38184612561565b905092915050565b60006101008201905081810360008301526128e6818b612561565b90506128f5602083018a6124dd565b81810360408301526129078189612561565b9050818103606083015261291b8188612561565b905061292a6080830187612667565b61293760a0830186612667565b61294460c08301856124fb565b61295160e08301846124fb565b9998505050505050505050565b60006020820190508181036000830152612978818461259a565b905092915050565b60006020820190506129956000830184612667565b92915050565b6000604051905081810181811067ffffffffffffffff821117156129be57600080fd5b8060405250919050565b600067ffffffffffffffff8211156129df57600080fd5b601f19601f8301169050602081019050919050565b600067ffffffffffffffff821115612a0b57600080fd5b601f19601f8301169050602081019050919050565b600081519050919050565b600082825260208201905092915050565b600082825260208201905092915050565b6000612a5882612a6b565b9050919050565b60008115159050919050565b600073ffffffffffffffffffffffffffffffffffffffff82169050919050565b6000819050919050565b6000612aa082612add565b9050919050565b6000612ab282612ab9565b9050919050565b6000612ac482612a6b565b9050919050565b6000612ad682612a8b565b9050919050565b6000612ae882612aef565b9050919050565b6000612afa82612a6b565b9050919050565b82818337600083830152505050565b60005b83811015612b2e578082015181840152602081019050612b13565b83811115612b3d576000848401525b50505050565b6000601f19601f8301169050919050565b612b5d81612a4d565b8114612b6857600080fd5b50565b612b7481612a5f565b8114612b7f57600080fd5b50565b612b8b81612a8b565b8114612b9657600080fd5b5056fea365627a7a72315820547e457c0e2835b38cdde235ec77d550181e99554058245bb428106fba055c4c6c6578706572696d656e74616cf564736f6c63430005100040",
  "source": "pragma solidity >0.5.0;\r\npragma experimental ABIEncoderV2;\r\n\r\nimport \"./CbToken.sol\";\r\n\r\ncontract FundSwap{\r\n    string public name = \"Fund Swap\";\r\n    uint public rate = 20;\r\n    CbToken public cbToken;\r\n    uint public totalProject = 0;\r\n\r\n\r\n    struct Project{\r\n        string projectName;\r\n        address creator;\r\n        string description;\r\n        string projectLink;\r\n        uint goal;\r\n        uint currentAmount;\r\n        bool goalCompleted;\r\n        bool investorRewarded;   \r\n    }\r\n\r\n    // mapping for storing all the projects created for donation\r\n    mapping( uint =>Project) public projects;\r\n\r\n    // mapping for storing addresses of who donated to whom \r\n    mapping(address =>address[]) public addressInvestor;\r\n\r\n    // rewarded total amount of cb token for the investor \r\n    mapping( address => uint) public totalReward;\r\n\r\n    // to get the number of amount in cb token for the \r\n    // reward received on a project goal completion\r\n    mapping(address => mapping(address => uint)) public addressReward;\r\n\r\n    // to get the number of amount in cb token for the \r\n    // rewared donated on a project\r\n    mapping(address => mapping(address => uint)) public amountDonated;\r\n\r\n    // to keep track of the addresses received reward or not\r\n    mapping(address => mapping(address => bool)) public rewardReceived;\r\n\r\n\r\n    constructor (CbToken _cbToken) public{\r\n        cbToken = _cbToken;\r\n    }\r\n\r\n    \r\n    // event for token purchasing\r\n    event TokenPurchased(\r\n        address receiverAccount,\r\n        address cbToken,\r\n        address fundSwap,\r\n        uint256 amount,\r\n        uint rate\r\n    );\r\n\r\n    // event for token selling\r\n    event TokenSold(\r\n        address receiverAccount,\r\n        address cbToken,\r\n        address senderAccount,\r\n        uint256 amount,\r\n        uint rate,\r\n        uint etherAmount\r\n    );\r\n\r\n    // event for project creation\r\n    event ProjectCreate(\r\n        address creator,\r\n        uint goal,\r\n        uint currentAmount,\r\n        bool goalCompleted,\r\n        bool investorRewarded\r\n    );\r\n\r\n    // event for donation\r\n    event Donation(\r\n        address creator,\r\n        uint id,\r\n        uint amount\r\n    );\r\n\r\n    // function for buying the CB Tokens\r\n    function buycbTokens() public payable{\r\n        // 1 ether = 20 CB Tokens\r\n        // calculating the number of CB tokens tokens to buy\r\n        uint256 tokens = msg.value * rate;\r\n\r\n        // checking there is enough of CB tokens to buy\r\n        require( cbToken.balanceOf(address(this)) >= tokens);\r\n\r\n        // transfering the tokens to the address\r\n        cbToken.transfer(msg.sender, tokens);\r\n\r\n        // emit and event to check and test the transfer\r\n        emit TokenPurchased(msg.sender,address(cbToken),address(this),tokens,rate);\r\n\r\n    }\r\n\r\n    // function to sell CB Tokens\r\n    function sellcbTokens(uint _amount) public {\r\n        // 1 ether = 20 CB Token\r\n        // checking if there is enough balance to sell\r\n        require(_amount <= cbToken.balanceOf(msg.sender));\r\n        \r\n        // calculating ether amount from token\r\n        uint etherAmount = _amount / rate;\r\n\r\n        // checking that Fund Swap has enough balance\r\n        require(address(this).balance >= etherAmount);\r\n\r\n        // transfer of CB token to the Fund Swap contract from the investor\r\n        cbToken.transferFrom(msg.sender,address(this),_amount);\r\n        // transfer the amount in Wei form of ether\r\n        msg.sender.transfer(etherAmount);\r\n\r\n        emit TokenSold(address(this),address(cbToken),msg.sender,_amount,rate,etherAmount);\r\n\r\n    }\r\n\r\n    // function for creating project\r\n    function createProject(string memory _name,string memory _description,string memory _link,uint _goal) public{\r\n        totalProject++;\r\n        projects[totalProject] = Project(_name,msg.sender,_description,_link,_goal,0,false,false);\r\n        emit ProjectCreate(msg.sender,_goal,0,false,false);\r\n    }\r\n\r\n    // function for rewarding the investor\r\n    function reward(Project memory _proj,address _creator) public returns(Project memory _project){\r\n        // suppose current amount 40\r\n        // so balance will be 1.6\r\n        uint balance = _proj.currentAmount * 4/100;\r\n        if(balance <= cbToken.balanceOf(msg.sender)){\r\n            // require(balance <=cbToken.balanceOf(msg.sender),\"Not enough token to reward from CbSwap\");\r\n            for(uint i=0; i< addressInvestor[_creator].length ; i++){\r\n                if(!rewardReceived[_creator][addressInvestor[_creator][i]]){\r\n                    cbToken.transfer(addressInvestor[_creator][i],amountDonated[_creator][addressInvestor[_creator][i]]*4/100);\r\n                    addressReward[_creator][addressInvestor[_creator][i]] += amountDonated[_creator][addressInvestor[_creator][i]]*4/100;\r\n                    rewardReceived[_creator][addressInvestor[_creator][i]] = true;\r\n                    totalReward[addressInvestor[_creator][i]] += amountDonated[_creator][addressInvestor[_creator][i]]*4/100;\r\n                }\r\n            }\r\n            // investor rewarded\r\n            _proj.investorRewarded = !_proj.investorRewarded;\r\n            _project = _proj;\r\n            return _project;\r\n        }else{\r\n            // noice[1][2] = 15;\r\n            _project = _proj;\r\n            return _project;        \r\n        }\r\n        \r\n    }\r\n\r\n    // function to contribute CB tokens to the opensource projects\r\n    function donate(uint _id, address _to,uint _amount) public{\r\n        // \r\n        require(_amount<= cbToken.balanceOf(msg.sender));\r\n        Project memory _proj = projects[_id];\r\n        if(_proj.creator == _to){\r\n            cbToken.transferFrom(msg.sender, _to, _amount);\r\n            amountDonated[_proj.creator][msg.sender] +=  _amount;\r\n            if(!rewardReceived[_proj.creator][msg.sender])\r\n                rewardReceived[_proj.creator][msg.sender] = false;\r\n            addressInvestor[_proj.creator].push(msg.sender);\r\n            _proj.currentAmount += _amount;\r\n            if(_proj.currentAmount >= _proj.goal && !_proj.goalCompleted){\r\n                // goal completed true\r\n                _proj.goalCompleted = !_proj.goalCompleted;\r\n                // call the reward function with _proj and address of creator as parameter\r\n                _proj = reward(_proj,_to);\r\n                // investor rewarded\r\n                // _proj.investorRewarded = !_proj.investorRewarded;\r\n            }\r\n        }\r\n        // set the updated project state\r\n        projects[_id] = _proj;\r\n        emit Donation(_to, _id, _amount);\r\n    }\r\n\r\n\r\n\r\n}\r\n",
  "sourcePath": "D:/Preetam Sarkar 4th and final year project/-Crypto-Dapp/src/contracts/FundSwap.sol",
  "compiler": {
    "name": "solc",
    "version": "0.5.16+commit.9c3226ce.Emscripten.clang"
  },
  "schemaVersion": "3.2.3",
  "updatedAt": "2021-12-12T05:24:30.190Z",
  "networkType": "ethereum",
  "devdoc": {
    "methods": {}
  },
  "userdoc": {
    "methods": {}
  }
}